:10000000D7C0CDC1F0C0EFC0EEC0EDC0ECC00EC295
:10001000EAC0E9C0E8C0CDC1E6C0E5C047C1E3C061
:10002000E2C0E1C0E0C0DFC0DEC0DDC0DCC0DBC0DC
:10003000DAC0D9C00000010002000300040005007E
:1000400006000700080009000A000B000C000D0064
:100050000E000F0010001100120013001400150014
:100060001500160017001700180019001A001B00D1
:100070001B001C001D001E001F002000210023008B
:10008000240025002600270029002A002B002D002F
:100090002E003000310033003500360038003A00C1
:1000A0003C003E00400042004400470049004B0035
:1000B0004E0050005300560059005B005F00620084
:1000C000650068006C006F00730077007B007F00A4
:1000D000830087008C00900095009A009F00A40088
:1000E000AA00AF00B500BB00C100C800CE00D5001B
:1000F000DC00E300EB00F300FB0003010B01140143
:100100001D01270130013A01450150015B016601E3
:1001100072017E018B019801A501B301C201D001DA
:10012000E001F001000211022202340247025A02E9
:100130006E0283029802AE02C502DC02F4020D03D5
:10014000270342035D037A039703B503D503F50341
:10015000160439045D048204A804CF04F8042205BF
:100160004D057A05A805D80509063C067106A806BE
:10017000E0061A0756079407D40716085B08A1087B
:10018000EA0836098309D409270A7D0AD60A310B01
:10019000900BF10B560CBF0C2B0D9A0D0D0E840E0F
:1001A000FE0E7D0FBE0FDC0FF00FFA0FFD0FFF0FDD
:1001B00011241FBECFEFD4E0DEBFCDBF11E0A0E021
:1001C000B1E0E6E0FBE002C005900D92AC30B10773
:1001D000D9F721E0ACE0B1E001C01D92A338B2072D
:1001E000E1F7DFD18EC40CCF219A229A239A259A67
:1001F000269A279A29982D982F982A9A2E9A82E043
:1002000084BD85E085BD83E087BDEEE6F0E08081BA
:10021000826080830895282F220F220F922F990F3A
:10022000990F392F330F330F482F42954F70422BC0
:10023000282F26952695922B832BE5E1F1E029E3E3
:1002400031E0DF0112974C9311969C938083339693
:10025000E217F307B1F708952FE2281B822F90E0F1
:10026000FC01EE0FFF1F8E0F9F1FFC01F695E79517
:1002700020FD14C0DF01A55CBE4FCB019295829595
:100280008F7089279F7089278C93E45CFE4F808153
:100290008F706295607F682B60830895E55CFE4FE8
:1002A0008081807F872B8083618308951F920F92C6
:1002B0000FB60F9211242F938F939F93EF93FF9379
:1002C00080910D01882391F02F9A2E9AE3E1F1E0BD
:1002D00087E391E021912EBD0DB407FEFDCFE81715
:1002E000F907C1F7299A299810920D012A9A80914D
:1002F0000C01882329F02E98299A299810920C0134
:100300002A9880911201882389F0EBE3F1E083E8D9
:1003100091E021912EBD0DB407FEFDCFE817F9073E
:10032000C1F781E080930C011092120180911101BC
:10033000882329F081E080930D0110921101FF9133
:10034000EF919F918F912F910F900FBE0F901F9063
:100350001895009749F0EFECF7E03197F1F700C0FE
:10036000000001970097B9F70895EAE7F0E080816F
:100370008F7780830895ECE7F0E090818F70907F15
:10038000982B9083EAE7F0E080818064808380810D
:1003900086FDFDCF809178009091790008951F929D
:1003A0000F920FB60F9211244A99FECF8BB11BB852
:1003B000FBCF1F920F920FB60F9211242F934F93E2
:1003C0005F936F937F938F939F93AF93BF9380912E
:1003D000370190913801A0913901B0913A01AC01F7
:1003E000BD014F5F5F4F6F4F7F4F40933701509379
:1003F00038016093390170933A0181389E4EA643CB
:10040000B10510F08BB11BB8BF91AF919F918F9147
:100410007F916F915F914F912F910F900FBE0F9031
:100420001F90189589B18095837008951F920F923F
:100430000FB60F9211242F933F934F935F936F93B7
:100440007F938F939F93AF93BF93CF93EF93FF933C
:10045000E9DFC82F80FF27C080910F018F5F809355
:100460000F0180910F01893CF0F0909111019111E1
:10047000FCCF809110018F5F873014F480931001BE
:10048000609110018AE090E0D4D2E0911001FF2742
:10049000E7FDF095EC5FFE4F8081BDDE81E080934B
:1004A000110110920F01C1FF26C080910E018F5FD4
:1004B00080930E0180910E01893CE8F0809111013A
:1004C0008111FCCF80911001815010F080931001B8
:1004D000609110018AE090E0ACD2E0911001FF271A
:1004E000E7FDF095EC5FFE4F808195DE81E0809323
:1004F000110110920E01FF91EF91CF91BF91AF9139
:100500009F918F917F916F915F914F913F912F912B
:100510000F900FBE0F901F90189566DE80E58CBD82
:1005200081E08DBD579A5F9A529883E0809369006D
:10053000E89A8BE080938100ECE7F0E0F09389008B
:10054000E0938800AFE6B0E08C9182608C9380816C
:1005500080648083EAE7F0E0808183688083EEE74F
:10056000F0E080818F6380838AB18C7F8AB98BB100
:1005700083608BB9E0EBF0E080818260808384E06F
:100580008093B1008CE78093B300E0E7F0E08081D6
:10059000826080838AE090E044D280931001789456
:1005A0000895CF93DF93CDB7DEB7CE5CD1090FB6F8
:1005B000F894DEBF0FBECDBFB0DF80E0DCDE26D218
:1005C000D4DE809111018111FCCFE0911001FF2751
:1005D000E7FDF095EC5FFE4F80811DDE81E08093AA
:1005E00011018E010F5C1F4F9E012F5F3F4F69016C
:1005F000280130E3430E511C56017801602E0F2E66
:10060000FBEA2F2E312CF02D962C8E2C801AFAD14D
:10061000B10187D10F2EFAE07F2EF02D780ED70191
:100620007D927D01EFD181709078992324F4019718
:100630008E6F9F6F0196F50181935F01809112018A
:100640008111FCCFE72DF0E0EE0FFF1FEC5CFF4FB8
:1006500065917491882D00DEF1E0F0931201E414AD
:10066000F50491F6812C202E312E9E012F593F4FFB
:10067000CF53DF4F39832883C15CD040AE014F5642
:100680005F4FCD53DF4F59834883C35CD040CF5376
:10069000DF4F5881C15CD040C753DF4F5883C95CDE
:1006A000D040CE53DF4F8881C25CD040C653DF4F6D
:1006B0008883CA5CD040CD53DF4F9881C35CD04063
:1006C000C553DF4F9883CB5CD040CC53DF4FA8811C
:1006D000C45CD040C453DF4FA883CC5CD040C3532C
:1006E000DF4FC882CD5CD040C253DF4FD882CE5C92
:1006F000D04024C087D1B50114D16701F301008136
:1007000010E008171907B0F7E1E6F0E0EC0FFD1F65
:10071000EE0DFF1D80830F2EFEEBEF2EF12CF02D42
:1007200071D1B701FED080179107D0F7E1E9F0E071
:10073000EC0FFD1FEC0DFD1D80838394FFE2F81587
:1007400088F00F2EFEEBAF2EB12CF02DE82CF12C03
:100750000F2EF1E36F2E712CF02D6C0E7D1E6E0CA2
:100760007F1CC8CF8091370190913801A091390149
:10077000B0913A019C01AD01205A35414F4F5F4F76
:10078000CB53DF4F288339834A835B83C55CD040DA
:100790008091370190913801A0913901B0913A01CF
:1007A00082179307A407B50708F0B2C077247394A3
:1007B000872CC253DF4F6880CE5CD0405EC0802F54
:1007C0008919F8012081D5019D915D01291302C08D
:1007D000D7011C92D6019D916D01291303C0D70149
:1007E0007C9204C0D7019C91913099F490911201B0
:1007F0009111FCCF91E0920F9083E22FF0E0EE0F89
:10080000FF1FEC5CFF4F6591749126DD8092120111
:1008100012C0909112019111FCCF9FEF920F908323
:10082000E22FF0E0EE0FFF1FEC5CFF4F659174913B
:1008300013DD809212010F5F1F4FBFEFEB1AFB0A0F
:100840000415150509F0BBCF80E090E082DD8091B2
:10085000370190913801A0913901B0913A01CB5301
:10086000DF4F288139814A815B81C55CD040821786
:100870009307A407B50708F04BC0C753DF4FA88004
:10088000C95CD040C653DF4FB880CA5CD040C55366
:10089000DF4FC880CB5CD040C453DF4FD880CC5CE6
:1008A000D040C353DF4FE880CD5CD040F62C022D02
:1008B000132D85CFD02ED9187801D8018C918D3B7E
:1008C00071F4809112018111FCCFF701B082EEEA40
:1008D000F1E0659174918D2DBFDCC0921201D701BA
:1008E0008C9181110EC0809112018111FCCFF70112
:1008F000C082E4E3F0E0659174918D2DADDCC0928F
:1009000012010F5F1F4F04151505A1F6812C16CF9C
:10091000022D132D0F2EFCEBBF2EF02DCC24C394F3
:10092000C9CF97FB072E16F4009406D077FD08D0A8
:100930000BD007FC05D03EF4909581959F4F08950C
:10094000709561957F4F0895AA1BBB1B51E107C0AD
:10095000AA1FBB1FA617B70710F0A61BB70B881F4F
:10096000991F5A95A9F780959095BC01CD010895DE
:100970008F929F92AF92BF92CF92DF92EF92FF92AF
:10098000CF93DF93EC01688179818A819B81611526
:1009900071058105910521F464E279ED8BE597E01D
:1009A0002DE133EF41E050E052D049015A019B0163
:1009B000AC01A7EAB1E467D06B017C01ACEEB4EF07
:1009C000A50194016CD0C60ED71EE81EF91EF7FED5
:1009D00006C081E0C81AD108E10880E8F80AC88298
:1009E000D982EA82FB82C6019F77DF91CF91FF9087
:1009F000EF90DF90CF90BF90AF909F908F90089531
:100A0000B7DF089580E091E0B3DF0895A0E0B0E0A3
:100A10008093000190930101A0930201B093030120
:100A20000895F999FECF92BD81BDF89A992780B5B6
:100A30000895262FF999FECF1FBA92BD81BD20BD22
:100A40000FB6F894FA9AF99A0FBE01960895052EFA
:100A500097FB16F400940FD057FD05D024D007FC67
:100A600002D046F408C050954095309521953F4FEF
:100A70004F4F5F4F089590958095709561957F4F8A
:100A80008F4F9F4F089531D0A59F900DB49F900D2B
:100A9000A49F800D911D11240895B7FFF4CFF3DFBB
:100AA000821B930B0895A1E21A2EAA1BBB1BFD010A
:100AB0000DC0AA1FBB1FEE1FFF1FA217B307E4073D
:100AC000F50720F0A21BB30BE40BF50B661F771F95
:100AD000881F991F1A9469F7609570958095909575
:100AE0009B01AC01BD01CF010895A29FB001B39F4E
:100AF000C001A39F01D0B29F700D811D1124911DD3
:060B00000895F894FFCFF8
:0C0B0600010000000102040810203F0064
:00000001FF
