:10000000D7C0D7C1F0C0EFC0EEC0EDC0ECC018C281
:10001000EAC0E9C0E8C0D7C1E6C0E5C051C1E3C04D
:10002000E2C0E1C0E0C0DFC0DEC0DDC0DCC0DBC0DC
:10003000DAC0D9C00000010002000300040005007E
:1000400006000700080009000A000B000C000D0064
:100050000E000F0010001100120013001400150014
:100060001500160017001700180019001A001B00D1
:100070001B001C001D001E001F002000210023008B
:10008000240025002600270029002A002B002D002F
:100090002E003000310033003500360038003A00C1
:1000A0003C003E00400042004400470049004B0035
:1000B0004E0050005300560059005B005F00620084
:1000C000650068006C006F00730077007B007F00A4
:1000D000830087008C00900095009A009F00A40088
:1000E000AA00AF00B500BB00C100C800CE00D5001B
:1000F000DC00E300EB00F300FB0003010B01140143
:100100001D01270130013A01450150015B016601E3
:1001100072017E018B019801A501B301C201D001DA
:10012000E001F001000211022202340247025A02E9
:100130006E0283029802AE02C502DC02F4020D03D5
:10014000270342035D037A039703B503D503F50341
:10015000160439045D048204A804CF04F8042205BF
:100160004D057A05A805D80509063C067106A806BE
:10017000E0061A0756079407D40716085B08A1087B
:10018000EA0836098309D409270A7D0AD60A310B01
:10019000900BF10B560CBF0C2B0D9A0D0D0E840E0F
:1001A000FE0E7D0FBE0FDC0FF00FFA0FFD0FFF0FDD
:1001B00011241FBECFEFD4E0DEBFCDBF11E0A0E021
:1001C000B1E0EAECFAE002C005900D92AC30B10764
:1001D000D9F721E0ACE0B1E001C01D92AB33B2072A
:1001E000E1F7E9D170C40CCF219A229A239A259A7B
:1001F000269A279A29982D982F982A9A2E9A82E043
:1002000084BD85E085BD83E087BDEEE6F0E08081BA
:10021000826080830895282F220F220F922F990F3A
:10022000990F392F330F330F482F42954F70242BDE
:10023000482F46954695942B832B2093130190933A
:100240001401809315012093160190931701809358
:1002500018012093190190931A0180931B01209398
:100260001C0190931D0180931E0108952FE0281B0F
:10027000822F90E0FC01EE0FFF1F8E0F9F1FFC01ED
:10028000F695E79520FD14C0DF01AD5DBE4FCB01B3
:10029000929582958F7089279F7089278C93EC5D4A
:1002A000FE4F80818F706295607F682B6083089518
:1002B000ED5DFE4F8081807F872B80836183089571
:1002C0001F920F920FB60F9211242F938F939F932B
:1002D000EF93FF9380910D01882391F02F9A2E9A2E
:1002E000E3E1F1E08FE191E021912EBD0DB407FE35
:1002F000FDCFE817F907C1F7299A299810920D0147
:100300002A9A80910C01882329F02E98299A2998FD
:1003100010920C012A9880911201882389F0E3E25F
:10032000F1E08BE391E021912EBD0DB407FEFDCFEE
:10033000E817F907C1F781E080930C0110921201D0
:1003400080911101882329F081E080930D011092A2
:100350001101FF91EF919F918F912F910F900FBEFF
:100360000F901F901895009749F0EFECF7E0319748
:10037000F1F700C0000001970097B9F70895EAE788
:10038000F0E080818F7780830895ECE7F0E0908142
:100390008F70907F982B9083EAE7F0E080818064F3
:1003A0008083808186FDFDCF8091780090917900D7
:1003B00008951F920F920FB60F9211244A99FECF03
:1003C0008BB11BB8FBCF1F920F920FB60F92112467
:1003D0002F934F935F936F937F938F939F93AF93DD
:1003E000BF9380911F0190912001A0912101B091B4
:1003F0002201AC01BD014F5F5F4F6F4F7F4F4093B4
:100400001F015093200160932101709322018138D4
:100410009E4EA643B10510F08BB11BB8BF91AF91B2
:100420009F918F917F916F915F914F912F910F903D
:100430000FBE0F901F90189589B180958370089515
:100440001F920F920FB60F9211242F933F934F9349
:100450005F936F937F938F939F93AF93BF93CF934C
:10046000EF93FF93E9DFC82F80FF27C080910F0132
:100470008F5F80930F0180910F01893CF0F0909184
:1004800011019111FCCF809110018F5F873014F41E
:1004900080931001609110018AE090E0ACD2E0916D
:1004A0001001FF27E7FDF095EC5FFE4F8081B3DE82
:1004B00081E08093110110920F01C1FF26C080914D
:1004C0000E018F5F80930E0180910E01893CE8F050
:1004D000809111018111FCCF80911001815010F0A9
:1004E00080931001609110018AE090E084D2E09145
:1004F0001001FF27E7FDF095EC5FFE4F80818BDE5A
:1005000081E08093110110920E01FF91EF91CF9144
:10051000BF91AF919F918F917F916F915F914F911B
:100520003F912F910F900FBE0F901F9018955CDE9A
:1005300080E58CBD81E08DBD579A5F9A529883E02B
:1005400080936900E89A8BE080938100ECE7F0E00B
:10055000F0938900E0938800AFE6B0E08C91826070
:100560008C93808180648083EAE7F0E080818368F7
:100570008083EEE7F0E080818F6380838AB18C7F97
:100580008AB98BB183608BB9E0EBF0E08081826047
:10059000808384E08093B1008CE78093B300E0E730
:1005A000F0E08081826080838AE090E01CD28093BA
:1005B000100178940895CF93DF93CDB7DEB7CE5472
:1005C000D1090FB6F894DEBF0FBECDBFB0DF80E01B
:1005D000DCDEFED1D4DE809111018111FCCFE091EF
:1005E0001001FF27E7FDF095EC5FFE4F808113DEE1
:1005F00081E0809311018E010F5E1F4F9E012F5FDE
:100600003F4F69011E0131E2230E311C5601780172
:10061000602E0F2EFBEA4F2E512CF02D962C7E2CA7
:10062000701AD2D1B2015FD10F2EFAE08F2EF02DC9
:10063000880ED7018D927D01C7D181709078992362
:1006400024F401978E6F9F6F0196F50181935F01EE
:10065000809112018111FCCFE82DF0E0EE0FFF1F19
:10066000EC5CFF4F65917491872D00DEF1E0F09313
:100670001201E214F30491F6812C402E512E9E01BA
:100680002F5D3F4F23963FAF2EAF2397AE014F5CB8
:100690005F4F25965FAF4EAF259722965FAD2297AD
:1006A0002A965FAF2A9723968FAD23972B968FAF0D
:1006B0002B9724969FAD24972C969FAF2C97259629
:1006C000AFAD25972D96AFAF2D972E96CFAE2E9727
:1006D0002F96DFAE2F9724C077D1B50104D16701E3
:1006E000F301008110E008171907B0F7E1E2F0E02C
:1006F000EC0FFD1FEE0DFF1D80830F2EFEEBEF2E86
:10070000F12CF02D61D1B701EED080179107D0F711
:10071000E1E3F0E0EC0FFD1FEC0DFD1D8083839401
:10072000FFE0F81588F00F2EFEEBAF2EB12CF02D68
:10073000E82CF12C0F2EF1E16F2E712CF02D6C0EA8
:100740007D1E6E0C7F1CC8CF80911F0190912001EF
:10075000A0912101B09122019C01AD01205A3541A7
:100760004F4F5F4F29962CAF3DAF4EAF5FAF2997EC
:1007700080911F0190912001A0912101B09122014F
:1007800082179307A407B50708F0A4C077247394D1
:10079000872C2F966FAC2F975CC0802F8919F8019A
:1007A0002081D5019D915D01291302C0D7011C92C2
:1007B000D6019D916D01291303C0D7017C9204C01D
:1007C000D7019C91913099F4909112019111FCCF35
:1007D00091E0920F9083E22FF0E0EE0FFF1FEC5CB0
:1007E000FF4F6591749142DD8092120112C0909189
:1007F00012019111FCCF9FEF920F9083E22FF0E056
:10080000EE0FFF1FEC5CFF4F659174912FDD80921E
:1008100012010F5F1F4FBFEFEB1AFB0A0215130502
:1008200009F0BBCF8AE090E09EDD80911F0190919E
:100830002001A0912101B091220129962CAD3DAD5E
:100840004EAD5FAD299782179307A407B50708F04F
:1008500041C02A96AFAC2A972B96BFAC2B972C960B
:10086000CFAC2C972D96DFAC2D972E96EFAC2E9714
:10087000F62C042D152D91CFD02ED9187801D80142
:100880008C918D3B71F4809112018111FCCFF701A5
:10089000B082EEEAF1E0659174918D2DE7DCC092B3
:1008A0001201D7018C9181110EC08091120181112A
:1008B000FCCFF701C082E4E3F0E0659174918D2DE7
:1008C000D5DCC09212010F5F1F4F02151305A1F670
:1008D000812C26CF042D152D0F2EFCEBBF2EF02DD5
:1008E000CC24C394C9CF97FB072E16F4009406D0EE
:1008F00077FD08D00BD007FC05D03EF4909581958C
:100900009F4F0895709561957F4F0895AA1BBB1B5B
:1009100051E107C0AA1FBB1FA617B70710F0A61BFF
:10092000B70B881F991F5A95A9F780959095BC0120
:10093000CD0108958F929F92AF92BF92CF92DF9296
:10094000EF92FF92CF93DF93EC01688179818A81E6
:100950009B81611571058105910521F464E279EDB2
:100960008BE597E02DE133EF41E050E052D04901B3
:100970005A019B01AC01A7EAB1E467D06B017C018D
:10098000ACEEB4EFA50194016CD0C60ED71EE81EE4
:10099000F91EF7FE06C081E0C81AD108E10880E818
:1009A000F80AC882D982EA82FB82C6019F77DF916A
:1009B000CF91FF90EF90DF90CF90BF90AF909F903E
:1009C0008F900895B7DF089580E091E0B3DF089538
:1009D000A0E0B0E08093000190930101A093020198
:1009E000B09303010895F999FECF92BD81BDF89AA5
:1009F000992780B50895262FF999FECF1FBA92BD89
:100A000081BD20BD0FB6F894FA9AF99A0FBE0196EF
:100A10000895052E97FB16F400940FD057FD05D0CE
:100A200024D007FC02D046F408C05095409530957C
:100A300021953F4F4F4F5F4F08959095809570954A
:100A400061957F4F8F4F9F4F089531D0A59F900D97
:100A5000B49F900DA49F800D911D11240895B7FFA0
:100A6000F4CFF3DF821B930B0895A1E21A2EAA1B89
:100A7000BB1BFD010DC0AA1FBB1FEE1FFF1FA2174E
:100A8000B307E407F50720F0A21BB30BE40BF50B4B
:100A9000661F771F881F991F1A9469F760957095D4
:100AA000809590959B01AC01BD01CF010895A29F57
:100AB000B001B39FC001A39F01D0B29F700D811DF3
:0A0AC0001124911D0895F894FFCF52
:0C0ACA00010000000102040810203F00A1
:00000001FF
